{
  "_format": "hh-sol-artifact-1",
  "contractName": "WithdrawalFinalizer",
  "sourceName": "cache/solpp-generated-contracts/WithdrawalFinalizer.sol",
  "abi": [
    {
      "inputs": [
        {
          "components": [
            {
              "internalType": "uint256",
              "name": "_l2BlockNumber",
              "type": "uint256"
            },
            {
              "internalType": "uint256",
              "name": "_l2MessageIndex",
              "type": "uint256"
            },
            {
              "internalType": "uint16",
              "name": "_l2TxNumberInBlock",
              "type": "uint16"
            },
            {
              "internalType": "bytes",
              "name": "_message",
              "type": "bytes"
            },
            {
              "internalType": "bytes32[]",
              "name": "_merkleProof",
              "type": "bytes32[]"
            },
            {
              "internalType": "bool",
              "name": "_isEth",
              "type": "bool"
            },
            {
              "internalType": "uint256",
              "name": "_gas",
              "type": "uint256"
            }
          ],
          "internalType": "struct WithdrawalFinalizer.RequestFinalizeWithdrawal[]",
          "name": "requests",
          "type": "tuple[]"
        }
      ],
      "name": "finalizeWithdrawals",
      "outputs": [
        {
          "components": [
            {
              "internalType": "uint256",
              "name": "_l2BlockNumber",
              "type": "uint256"
            },
            {
              "internalType": "uint256",
              "name": "_l2MessageIndex",
              "type": "uint256"
            },
            {
              "internalType": "uint256",
              "name": "_gas",
              "type": "uint256"
            },
            {
              "internalType": "bool",
              "name": "success",
              "type": "bool"
            }
          ],
          "internalType": "struct WithdrawalFinalizer.Result[]",
          "name": "",
          "type": "tuple[]"
        }
      ],
      "stateMutability": "nonpayable",
      "type": "function"
    }
  ],
  "bytecode": "0x608060405234801561001057600080fd5b506109b1806100206000396000f3fe608060405234801561001057600080fd5b506004361061002b5760003560e01c806332bfc64d14610030575b600080fd5b61004361003e36600461067d565b610059565b60405161005091906106f2565b60405180910390f35b60608160008167ffffffffffffffff81111561007757610077610758565b6040519080825280602002602001820160405280156100d557816020015b6100c260405180608001604052806000815260200160008152602001600081526020016000151581525090565b8152602001906001900390816100955790505b50905060005b8281101561067257603f8686838181106100f7576100f761076e565b90506020028101906101099190610784565b6101189060c0013560406107ba565b61012291906107d1565b61012e906101f46107f3565b5a10156101655760405162461bcd60e51b81526020600482015260016024820152606960f81b604482015260640160405180910390fd5b60005a905086868381811061017c5761017c61076e565b905060200281019061018e9190610784565b61019f9060c081019060a001610806565b1561043b57735889ec7630ca141daeccea8b3e35f4f5f92f23fa636c0960f98888858181106101d0576101d061076e565b90506020028101906101e29190610784565b60c001358989868181106101f8576101f861076e565b905060200281019061020a9190610784565b358a8a8781811061021d5761021d61076e565b905060200281019061022f9190610784565b602001358b8b888181106102455761024561076e565b90506020028101906102579190610784565b61026890606081019060400161082f565b8c8c8981811061027a5761027a61076e565b905060200281019061028c9190610784565b61029a906060810190610853565b8e8e8b8181106102ac576102ac61076e565b90506020028101906102be9190610784565b6102cc9060808101906108a1565b6040518963ffffffff1660e01b81526004016102ee97969594939291906108eb565b600060405180830381600088803b15801561030857600080fd5b5087f19350505050801561031a575060015b6103b057604051806080016040528088888581811061033b5761033b61076e565b905060200281019061034d9190610784565b3581526020018888858181106103655761036561076e565b90506020028101906103779190610784565b60200135815260200160008152602001600015158152508383815181106103a0576103a061076e565b6020026020010181905250610669565b60405180608001604052808888858181106103cd576103cd61076e565b90506020028101906103df9190610784565b3581526020018888858181106103f7576103f761076e565b90506020028101906104099190610784565b6020013581526020015a61041d9084610968565b8152602001600115158152508383815181106103a0576103a061076e565b735fba9be50d447bf9d77874862e76e7b2fc12ecf96311a2ccc18888858181106104675761046761076e565b90506020028101906104799190610784565b60c0013589898681811061048f5761048f61076e565b90506020028101906104a19190610784565b358a8a878181106104b4576104b461076e565b90506020028101906104c69190610784565b602001358b8b888181106104dc576104dc61076e565b90506020028101906104ee9190610784565b6104ff90606081019060400161082f565b8c8c898181106105115761051161076e565b90506020028101906105239190610784565b610531906060810190610853565b8e8e8b8181106105435761054361076e565b90506020028101906105559190610784565b6105639060808101906108a1565b6040518963ffffffff1660e01b815260040161058597969594939291906108eb565b600060405180830381600088803b15801561059f57600080fd5b5087f1935050505080156105b1575060015b6105d257604051806080016040528088888581811061033b5761033b61076e565b60405180608001604052808888858181106105ef576105ef61076e565b90506020028101906106019190610784565b3581526020018888858181106106195761061961076e565b905060200281019061062b9190610784565b6020013581526020015a61063f9084610968565b81526020016001151581525083838151811061065d5761065d61076e565b60200260200101819052505b506001016100db565b509150505b92915050565b6000806020838503121561069057600080fd5b823567ffffffffffffffff808211156106a857600080fd5b818501915085601f8301126106bc57600080fd5b8135818111156106cb57600080fd5b8660208260051b85010111156106e057600080fd5b60209290920196919550909350505050565b602080825282518282018190526000919060409081850190868401855b8281101561074b57815180518552868101518786015285810151868601526060908101511515908501526080909301929085019060010161070f565b5091979650505050505050565b634e487b7160e01b600052604160045260246000fd5b634e487b7160e01b600052603260045260246000fd5b6000823560de1983360301811261079a57600080fd5b9190910192915050565b634e487b7160e01b600052601160045260246000fd5b8082028115828204841417610677576106776107a4565b6000826107ee57634e487b7160e01b600052601260045260246000fd5b500490565b80820180821115610677576106776107a4565b60006020828403121561081857600080fd5b8135801515811461082857600080fd5b9392505050565b60006020828403121561084157600080fd5b813561ffff8116811461082857600080fd5b6000808335601e1984360301811261086a57600080fd5b83018035915067ffffffffffffffff82111561088557600080fd5b60200191503681900382131561089a57600080fd5b9250929050565b6000808335601e198436030181126108b857600080fd5b83018035915067ffffffffffffffff8211156108d357600080fd5b6020019150600581901b360382131561089a57600080fd5b87815286602082015261ffff8616604082015260a060608201528360a0820152838560c0830137600060c08583018101829052601f19601f8701168301838103820160808501529081018490526001600160fb1b0384111561094c57600080fd5b8360051b808660e08401370160e0019998505050505050505050565b81810381811115610677576106776107a456fea2646970667358221220016b8c4977f8b989c39f3a2561ae1cf270389abd89584abb34de8f1b354b419164736f6c63430008120033",
  "linkReferences": {},
  "deployedLinkReferences": {}
}